:100000000C942A000C943F000C943F000C943F0089
:100010000C943F000C943F000C943F000C943F0064
:100020000C943F000C943F000C943F000C943F0054
:100030000C943F000C943F000C943F000C943F0044
:100040000C943F000C943F000C943F000C943F0034
:100050000C943F0011241FBECFE5D4E0DEBFCDBF1E
:1000600010E0A0E6B0E0E2E1F1E002C005900D9200
:10007000A237B107D9F70E947C000C9487000C943A
:10008000000088BBD898D998DA9A85E08A95F1F76C
:100090000000DA988FED9EE20197F1F700C00000B2
:1000A00008958FEF8ABB87BB2FEF89EF90E0215037
:1000B00080409040E1F700C0000088E30E944100CA
:1000C0008CE00E94410086E00E94410081E00E9495
:1000D000410080E80C94410088BBD89AD998DA9AFC
:1000E00085E08A95F1F70000DA988FE99FE00197A3
:1000F000F1F700C0000008950E945100C0E6D0E072
:100100008991882319F00E946C00FACFFFCFF894F0
:02011000FFCF1F
:1001120048656C6C6F2041767220776F726C642137
:020122000000DB
:00000001FF
