:100000000C942A000C943C000C943C000C943C0092
:100010000C943C000C943C000C943C000C943C0070
:100020000C9448000C943C000C943C000C943C0054
:100030000C943C000C943C000C943C000C943C0050
:100040000C943C000C943C000C943C000C943C0040
:100050000C943C0011241FBECFE5D4E0DEBFCDBF21
:1000600020E0A0E6B0E001C01D92A236B207E1F7A1
:100070000E94A0000C94AA000C9400001DBC1CBCA3
:1000800089B7846089BF8EB582608EBD78940895EB
:100090001F920F920FB60F9211248F939F9312BA53
:1000A00080916000909161000A9721F410926100A4
:1000B000109260008091600090916100009711F4AF
:1000C0008FE32BC08130910511F486E026C0823089
:1000D000910511F48BE521C08330910511F48FE473
:1000E0001CC08430910511F486E617C08530910557
:1000F00011F48DE612C08630910511F48DE70DC024
:100100008730910511F487E008C08830910511F41B
:100110008FE703C0099711F48FE682BB80916000DE
:1001200090916100019690936100809360001DBCE6
:100130001CBC9F918F910F900FBE0F901F90189530
:10014000A09A81B38F6781BB15BA8FE382BB0E94EF
:080150003E00FFCFF894FFCF41
:00000001FF
