:040000000C942A0032
:100004000C9400000C9400000C9400000C9400006C
:100014000C9400000C9400000C9400000C9400005C
:100024000C9400000C9400000C9400000C9400004C
:100034000C9400000C9400000C9400000C9400003C
:100044000C9400000C9400000C9400000C9400002C
:10005400F894EE27ECBBF1E0FBBFEBBFE5BF8DE00E
:10006400A2E0BB27ED938A95E9F780E094E0A0E64F
:10007400ED930197E9F7EFE5EDBFE4E0EEBFC0E6ED
:10008400D1E00C944500E0E0EABBEBBBEFEFE7BB4B
:10009400E0E0E8BBC89918C0C09AC19AC29AC39A52
:1000A400C49AC59AC69AC79AA4EFB1E00E946800A0
:1000B400C098C198C298C398C498C598C698C79860
:1000C400A4EFB1E00E946800E5CFFFCF109639F0AD
:1000D40080ED97E00197F1F7A8951197C9F7089576
:00000001FF
