:040000000C942A0032
:100004000C9400000C9400000C9400000C9400006C
:100014000C9400000C9400000C9400000C9400005C
:100024000C9400000C9400000C9400000C9400004C
:100034000C9400000C9400000C9400000C9400003C
:100044000C9400000C9400000C9400000C9400002C
:10005400F894EE27ECBBF1E0FBBFEBBFE5BF8DE00E
:10006400A2E0BB27ED938A95E9F780E094E0A0E64F
:10007400ED930197E9F7EFE5EDBFE4E0EEBFC0E6ED
:10008400D1E00C944500E0E0EABBEBBBEFEFE7BB4B
:10009400E0E0E8BBC89904C0C09A5CD0C19AC0989B
:1000A400C19B03C057D0C29AC198C29B03C052D00F
:1000B400C39AC298C39B03C04DD0C49AC398C49B2F
:1000C40003C048D0C59AC498C59B03C043D0C69A00
:1000D400C598C69B03C03ED0C79AC698C79B02C0AA
:1000E400C69B01C003C036D0C69AC798C69B02C03F
:1000F400C59B01C003C02ED0C59AC698C59B02C03B
:10010400C49B01C003C026D0C49AC598C49B02C036
:10011400C39B01C003C01ED0C39AC498C39B02C032
:10012400C29B01C003C016D0C29AC398C29B02C02E
:10013400C19B01C003C00ED0C19AC298C19B02C02A
:10014400C09B01C005C006D0C09AC19803D0C09816
:10015400A1CFFFCFA8ECB0E00C94B000109639F01A
:1001640080ED97E00197F1F7A8951197C9F70895E5
:00000001FF
